:1000000002000E220000000000000002011A7581AB
:100010000712007FE582600302007A780079007A97
:10002000007B007C007D00EC4D601C88828983E4AD
:1000300093A3A882A9838A828B83F0A3AA82AB832D
:100040001CBCFFE31D80E07582007583007C007D91
:1000500000EC4D600AE4F0A31CBCFFF51D80F275B6
:1000600082007583007C007D00EC4D600AE4F0A303
:100070001CBCFFF51D80F212000312012880FE75E2
:10008000E60075E70075D60075D70075CE0075CF10
:100090000075C60075C700758E1175BE0075BF006E
:1000A000438780759852759B00759AFA759B1EC29E
:1000B0008C75890175F4FF758CFF75F2CA758ACA53
:1000C000D28CD2A9D2AF7582002222AA82C28CC061
:1000D000021200CAD0027B00BB070050358BF0052E
:1000E000F07C017D008006EC2CFCED33FDD5F0F7B3
:1000F0008A067F00EE5204EF5205EC4D6004D28C6C
:100100008002C28CC002C0031200CAD003D0020B0E
:1001100080C6D28C1200CA0200CA20A006D2A0C299
:10012000A18004D2A1C2A03230A20920A2FD758212
:10013000011200CB30A30920A3FD7582021200CB6F
:1001400030A40920A4FD7582031200CB30A5D9206C
:10015000A5FD7582051200CB80CE000000000000D6
:00000001FF
